{
  "_format": "hh-sol-artifact-1",
  "contractName": "NFTMarketplace",
  "sourceName": "contracts/NFTMarket.sol",
  "abi": [
    {
      "inputs": [],
      "stateMutability": "nonpayable",
      "type": "constructor"
    },
    {
      "inputs": [
        {
          "internalType": "address",
          "name": "sender",
          "type": "address"
        },
        {
          "internalType": "uint256",
          "name": "tokenId",
          "type": "uint256"
        },
        {
          "internalType": "address",
          "name": "owner",
          "type": "address"
        }
      ],
      "name": "ERC721IncorrectOwner",
      "type": "error"
    },
    {
      "inputs": [
        {
          "internalType": "address",
          "name": "operator",
          "type": "address"
        },
        {
          "internalType": "uint256",
          "name": "tokenId",
          "type": "uint256"
        }
      ],
      "name": "ERC721InsufficientApproval",
      "type": "error"
    },
    {
      "inputs": [
        {
          "internalType": "address",
          "name": "approver",
          "type": "address"
        }
      ],
      "name": "ERC721InvalidApprover",
      "type": "error"
    },
    {
      "inputs": [
        {
          "internalType": "address",
          "name": "operator",
          "type": "address"
        }
      ],
      "name": "ERC721InvalidOperator",
      "type": "error"
    },
    {
      "inputs": [
        {
          "internalType": "address",
          "name": "owner",
          "type": "address"
        }
      ],
      "name": "ERC721InvalidOwner",
      "type": "error"
    },
    {
      "inputs": [
        {
          "internalType": "address",
          "name": "receiver",
          "type": "address"
        }
      ],
      "name": "ERC721InvalidReceiver",
      "type": "error"
    },
    {
      "inputs": [
        {
          "internalType": "address",
          "name": "sender",
          "type": "address"
        }
      ],
      "name": "ERC721InvalidSender",
      "type": "error"
    },
    {
      "inputs": [
        {
          "internalType": "uint256",
          "name": "tokenId",
          "type": "uint256"
        }
      ],
      "name": "ERC721NonexistentToken",
      "type": "error"
    },
    {
      "anonymous": false,
      "inputs": [
        {
          "indexed": true,
          "internalType": "address",
          "name": "owner",
          "type": "address"
        },
        {
          "indexed": true,
          "internalType": "address",
          "name": "approved",
          "type": "address"
        },
        {
          "indexed": true,
          "internalType": "uint256",
          "name": "tokenId",
          "type": "uint256"
        }
      ],
      "name": "Approval",
      "type": "event"
    },
    {
      "anonymous": false,
      "inputs": [
        {
          "indexed": true,
          "internalType": "address",
          "name": "owner",
          "type": "address"
        },
        {
          "indexed": true,
          "internalType": "address",
          "name": "operator",
          "type": "address"
        },
        {
          "indexed": false,
          "internalType": "bool",
          "name": "approved",
          "type": "bool"
        }
      ],
      "name": "ApprovalForAll",
      "type": "event"
    },
    {
      "anonymous": false,
      "inputs": [
        {
          "indexed": false,
          "internalType": "uint256",
          "name": "_fromTokenId",
          "type": "uint256"
        },
        {
          "indexed": false,
          "internalType": "uint256",
          "name": "_toTokenId",
          "type": "uint256"
        }
      ],
      "name": "BatchMetadataUpdate",
      "type": "event"
    },
    {
      "anonymous": false,
      "inputs": [
        {
          "indexed": true,
          "internalType": "uint256",
          "name": "tokenId",
          "type": "uint256"
        },
        {
          "indexed": false,
          "internalType": "address",
          "name": "seller",
          "type": "address"
        },
        {
          "indexed": false,
          "internalType": "address",
          "name": "owner",
          "type": "address"
        },
        {
          "indexed": false,
          "internalType": "uint256",
          "name": "price",
          "type": "uint256"
        },
        {
          "indexed": false,
          "internalType": "bool",
          "name": "sold",
          "type": "bool"
        }
      ],
      "name": "MarketItemCreated",
      "type": "event"
    },
    {
      "anonymous": false,
      "inputs": [
        {
          "indexed": false,
          "internalType": "uint256",
          "name": "_tokenId",
          "type": "uint256"
        }
      ],
      "name": "MetadataUpdate",
      "type": "event"
    },
    {
      "anonymous": false,
      "inputs": [
        {
          "indexed": true,
          "internalType": "address",
          "name": "from",
          "type": "address"
        },
        {
          "indexed": true,
          "internalType": "address",
          "name": "to",
          "type": "address"
        },
        {
          "indexed": true,
          "internalType": "uint256",
          "name": "tokenId",
          "type": "uint256"
        }
      ],
      "name": "Transfer",
      "type": "event"
    },
    {
      "inputs": [
        {
          "internalType": "address",
          "name": "to",
          "type": "address"
        },
        {
          "internalType": "uint256",
          "name": "tokenId",
          "type": "uint256"
        }
      ],
      "name": "approve",
      "outputs": [],
      "stateMutability": "nonpayable",
      "type": "function"
    },
    {
      "inputs": [
        {
          "internalType": "address",
          "name": "owner",
          "type": "address"
        }
      ],
      "name": "balanceOf",
      "outputs": [
        {
          "internalType": "uint256",
          "name": "",
          "type": "uint256"
        }
      ],
      "stateMutability": "view",
      "type": "function"
    },
    {
      "inputs": [
        {
          "internalType": "uint256",
          "name": "tokenId",
          "type": "uint256"
        }
      ],
      "name": "cancelItemListing",
      "outputs": [],
      "stateMutability": "nonpayable",
      "type": "function"
    },
    {
      "inputs": [
        {
          "internalType": "uint256",
          "name": "tokenId",
          "type": "uint256"
        }
      ],
      "name": "createMarketSale",
      "outputs": [],
      "stateMutability": "payable",
      "type": "function"
    },
    {
      "inputs": [
        {
          "internalType": "string",
          "name": "tokenURI",
          "type": "string"
        },
        {
          "internalType": "uint256",
          "name": "price",
          "type": "uint256"
        }
      ],
      "name": "createToken",
      "outputs": [
        {
          "internalType": "uint256",
          "name": "",
          "type": "uint256"
        }
      ],
      "stateMutability": "payable",
      "type": "function"
    },
    {
      "inputs": [],
      "name": "fetchItemsListed",
      "outputs": [
        {
          "components": [
            {
              "internalType": "uint256",
              "name": "tokenId",
              "type": "uint256"
            },
            {
              "internalType": "address payable",
              "name": "seller",
              "type": "address"
            },
            {
              "internalType": "address payable",
              "name": "owner",
              "type": "address"
            },
            {
              "internalType": "uint256",
              "name": "price",
              "type": "uint256"
            },
            {
              "internalType": "bool",
              "name": "sold",
              "type": "bool"
            }
          ],
          "internalType": "struct NFTMarketplace.MarketItem[]",
          "name": "",
          "type": "tuple[]"
        }
      ],
      "stateMutability": "view",
      "type": "function"
    },
    {
      "inputs": [],
      "name": "fetchMarketItems",
      "outputs": [
        {
          "components": [
            {
              "internalType": "uint256",
              "name": "tokenId",
              "type": "uint256"
            },
            {
              "internalType": "address payable",
              "name": "seller",
              "type": "address"
            },
            {
              "internalType": "address payable",
              "name": "owner",
              "type": "address"
            },
            {
              "internalType": "uint256",
              "name": "price",
              "type": "uint256"
            },
            {
              "internalType": "bool",
              "name": "sold",
              "type": "bool"
            }
          ],
          "internalType": "struct NFTMarketplace.MarketItem[]",
          "name": "",
          "type": "tuple[]"
        }
      ],
      "stateMutability": "view",
      "type": "function"
    },
    {
      "inputs": [],
      "name": "fetchMyNFTs",
      "outputs": [
        {
          "components": [
            {
              "internalType": "uint256",
              "name": "tokenId",
              "type": "uint256"
            },
            {
              "internalType": "address payable",
              "name": "seller",
              "type": "address"
            },
            {
              "internalType": "address payable",
              "name": "owner",
              "type": "address"
            },
            {
              "internalType": "uint256",
              "name": "price",
              "type": "uint256"
            },
            {
              "internalType": "bool",
              "name": "sold",
              "type": "bool"
            }
          ],
          "internalType": "struct NFTMarketplace.MarketItem[]",
          "name": "",
          "type": "tuple[]"
        }
      ],
      "stateMutability": "view",
      "type": "function"
    },
    {
      "inputs": [
        {
          "internalType": "uint256",
          "name": "tokenId",
          "type": "uint256"
        }
      ],
      "name": "getApproved",
      "outputs": [
        {
          "internalType": "address",
          "name": "",
          "type": "address"
        }
      ],
      "stateMutability": "view",
      "type": "function"
    },
    {
      "inputs": [],
      "name": "getListingPrice",
      "outputs": [
        {
          "internalType": "uint256",
          "name": "",
          "type": "uint256"
        }
      ],
      "stateMutability": "view",
      "type": "function"
    },
    {
      "inputs": [
        {
          "internalType": "address",
          "name": "owner",
          "type": "address"
        },
        {
          "internalType": "address",
          "name": "operator",
          "type": "address"
        }
      ],
      "name": "isApprovedForAll",
      "outputs": [
        {
          "internalType": "bool",
          "name": "",
          "type": "bool"
        }
      ],
      "stateMutability": "view",
      "type": "function"
    },
    {
      "inputs": [],
      "name": "name",
      "outputs": [
        {
          "internalType": "string",
          "name": "",
          "type": "string"
        }
      ],
      "stateMutability": "view",
      "type": "function"
    },
    {
      "inputs": [
        {
          "internalType": "uint256",
          "name": "tokenId",
          "type": "uint256"
        }
      ],
      "name": "ownerOf",
      "outputs": [
        {
          "internalType": "address",
          "name": "",
          "type": "address"
        }
      ],
      "stateMutability": "view",
      "type": "function"
    },
    {
      "inputs": [
        {
          "internalType": "uint256",
          "name": "tokenId",
          "type": "uint256"
        },
        {
          "internalType": "uint256",
          "name": "price",
          "type": "uint256"
        }
      ],
      "name": "resellToken",
      "outputs": [],
      "stateMutability": "payable",
      "type": "function"
    },
    {
      "inputs": [
        {
          "internalType": "address",
          "name": "from",
          "type": "address"
        },
        {
          "internalType": "address",
          "name": "to",
          "type": "address"
        },
        {
          "internalType": "uint256",
          "name": "tokenId",
          "type": "uint256"
        }
      ],
      "name": "safeTransferFrom",
      "outputs": [],
      "stateMutability": "nonpayable",
      "type": "function"
    },
    {
      "inputs": [
        {
          "internalType": "address",
          "name": "from",
          "type": "address"
        },
        {
          "internalType": "address",
          "name": "to",
          "type": "address"
        },
        {
          "internalType": "uint256",
          "name": "tokenId",
          "type": "uint256"
        },
        {
          "internalType": "bytes",
          "name": "data",
          "type": "bytes"
        }
      ],
      "name": "safeTransferFrom",
      "outputs": [],
      "stateMutability": "nonpayable",
      "type": "function"
    },
    {
      "inputs": [
        {
          "internalType": "address",
          "name": "operator",
          "type": "address"
        },
        {
          "internalType": "bool",
          "name": "approved",
          "type": "bool"
        }
      ],
      "name": "setApprovalForAll",
      "outputs": [],
      "stateMutability": "nonpayable",
      "type": "function"
    },
    {
      "inputs": [
        {
          "internalType": "bytes4",
          "name": "interfaceId",
          "type": "bytes4"
        }
      ],
      "name": "supportsInterface",
      "outputs": [
        {
          "internalType": "bool",
          "name": "",
          "type": "bool"
        }
      ],
      "stateMutability": "view",
      "type": "function"
    },
    {
      "inputs": [],
      "name": "symbol",
      "outputs": [
        {
          "internalType": "string",
          "name": "",
          "type": "string"
        }
      ],
      "stateMutability": "view",
      "type": "function"
    },
    {
      "inputs": [
        {
          "internalType": "uint256",
          "name": "tokenId",
          "type": "uint256"
        }
      ],
      "name": "tokenURI",
      "outputs": [
        {
          "internalType": "string",
          "name": "",
          "type": "string"
        }
      ],
      "stateMutability": "view",
      "type": "function"
    },
    {
      "inputs": [
        {
          "internalType": "address",
          "name": "from",
          "type": "address"
        },
        {
          "internalType": "address",
          "name": "to",
          "type": "address"
        },
        {
          "internalType": "uint256",
          "name": "tokenId",
          "type": "uint256"
        }
      ],
      "name": "transferFrom",
      "outputs": [],
      "stateMutability": "nonpayable",
      "type": "function"
    },
    {
      "inputs": [
        {
          "internalType": "uint256",
          "name": "_listingPrice",
          "type": "uint256"
        }
      ],
      "name": "updateListingPrice",
      "outputs": [],
      "stateMutability": "payable",
      "type": "function"
    }
  ],
  "bytecode": "0x608060405266038d7ea4c680006009553480156200001c57600080fd5b506040518060400160405280600e81526020017f4e46544d61726b6574706c6163650000000000000000000000000000000000008152506040518060400160405280600481526020017f4e46544d0000000000000000000000000000000000000000000000000000000081525081600090816200009a919062000370565b508060019081620000ac919062000370565b50505033600a60006101000a81548173ffffffffffffffffffffffffffffffffffffffff021916908373ffffffffffffffffffffffffffffffffffffffff16021790555062000457565b600081519050919050565b7f4e487b7100000000000000000000000000000000000000000000000000000000600052604160045260246000fd5b7f4e487b7100000000000000000000000000000000000000000000000000000000600052602260045260246000fd5b600060028204905060018216806200017857607f821691505b6020821081036200018e576200018d62000130565b5b50919050565b60008190508160005260206000209050919050565b60006020601f8301049050919050565b600082821b905092915050565b600060088302620001f87fffffffffffffffffffffffffffffffffffffffffffffffffffffffffffffffff82620001b9565b620002048683620001b9565b95508019841693508086168417925050509392505050565b6000819050919050565b6000819050919050565b6000620002516200024b62000245846200021c565b62000226565b6200021c565b9050919050565b6000819050919050565b6200026d8362000230565b620002856200027c8262000258565b848454620001c6565b825550505050565b600090565b6200029c6200028d565b620002a981848462000262565b505050565b5b81811015620002d157620002c560008262000292565b600181019050620002af565b5050565b601f8211156200032057620002ea8162000194565b620002f584620001a9565b8101602085101562000305578190505b6200031d6200031485620001a9565b830182620002ae565b50505b505050565b600082821c905092915050565b6000620003456000198460080262000325565b1980831691505092915050565b600062000360838362000332565b9150826002028217905092915050565b6200037b82620000f6565b67ffffffffffffffff81111562000397576200039662000101565b5b620003a382546200015f565b620003b0828285620002d5565b600060209050601f831160018114620003e85760008415620003d3578287015190505b620003df858262000352565b8655506200044f565b601f198416620003f88662000194565b60005b828110156200042257848901518255600182019150602085019450602081019050620003fb565b868310156200044257848901516200043e601f89168262000332565b8355505b6001600288020188555050505b505050505050565b61402b80620004676000396000f3fe6080604052600436106101355760003560e01c80636352211e116100ab578063ae677aa31161006f578063ae677aa31461042d578063b88d4fde14610449578063be9af53614610472578063c87b56dd1461048e578063e219fc75146104cb578063e985e9c5146104e757610135565b80636352211e1461032f57806370a082311461036c57806372b3b620146103a957806395d89b41146103d9578063a22cb4651461040457610135565b806312e85585116100fd57806312e8558514610233578063202e37401461025e57806323b872dd14610289578063260070d8146102b257806342842e0e146102db57806345f8fa801461030457610135565b806301ffc9a71461013a57806306fdde0314610177578063081812fc146101a2578063095ea7b3146101df5780630f08efe014610208575b600080fd5b34801561014657600080fd5b50610161600480360381019061015c9190612df1565b610524565b60405161016e9190612e39565b60405180910390f35b34801561018357600080fd5b5061018c610585565b6040516101999190612ee4565b60405180910390f35b3480156101ae57600080fd5b506101c960048036038101906101c49190612f3c565b610617565b6040516101d69190612faa565b60405180910390f35b3480156101eb57600080fd5b5061020660048036038101906102019190612ff1565b610633565b005b34801561021457600080fd5b5061021d610649565b60405161022a9190613187565b60405180910390f35b34801561023f57600080fd5b506102486108c7565b60405161025591906131b8565b60405180910390f35b34801561026a57600080fd5b506102736108d1565b6040516102809190613187565b60405180910390f35b34801561029557600080fd5b506102b060048036038101906102ab91906131d3565b610bd3565b005b3480156102be57600080fd5b506102d960048036038101906102d49190612f3c565b610cd5565b005b3480156102e757600080fd5b5061030260048036038101906102fd91906131d3565b610f1e565b005b34801561031057600080fd5b50610319610f3e565b6040516103269190613187565b60405180910390f35b34801561033b57600080fd5b5061035660048036038101906103519190612f3c565b611240565b6040516103639190612faa565b60405180910390f35b34801561037857600080fd5b50610393600480360381019061038e9190613226565b611252565b6040516103a091906131b8565b60405180910390f35b6103c360048036038101906103be9190613388565b61130c565b6040516103d091906131b8565b60405180910390f35b3480156103e557600080fd5b506103ee61134e565b6040516103fb9190612ee4565b60405180910390f35b34801561041057600080fd5b5061042b60048036038101906104269190613410565b6113e0565b005b61044760048036038101906104429190612f3c565b6113f6565b005b34801561045557600080fd5b50610470600480360381019061046b91906134f1565b611490565b005b61048c60048036038101906104879190612f3c565b6114ad565b005b34801561049a57600080fd5b506104b560048036038101906104b09190612f3c565b6116eb565b6040516104c29190612ee4565b60405180910390f35b6104e560048036038101906104e09190613574565b6117fe565b005b3480156104f357600080fd5b5061050e600480360381019061050991906135b4565b6119f3565b60405161051b9190612e39565b60405180910390f35b6000634906490660e01b7bffffffffffffffffffffffffffffffffffffffffffffffffffffffff1916827bffffffffffffffffffffffffffffffffffffffffffffffffffffffff1916148061057e575061057d82611a87565b5b9050919050565b60606000805461059490613623565b80601f01602080910402602001604051908101604052809291908181526020018280546105c090613623565b801561060d5780601f106105e25761010080835404028352916020019161060d565b820191906000526020600020905b8154815290600101906020018083116105f057829003601f168201915b5050505050905090565b600061062282611b69565b5061062c82611bf1565b9050919050565b6106458282610640611c2e565b611c36565b5050565b606060006106576007611c48565b905060006106656008611c48565b61066f6007611c48565b6106799190613683565b90506000808267ffffffffffffffff8111156106985761069761325d565b5b6040519080825280602002602001820160405280156106d157816020015b6106be612d28565b8152602001906001900390816106b65790505b50905060005b848110156108bc573073ffffffffffffffffffffffffffffffffffffffff16600b600060018461070791906136b7565b815260200190815260200160002060020160009054906101000a900473ffffffffffffffffffffffffffffffffffffffff1673ffffffffffffffffffffffffffffffffffffffff16036108a9576000600b600060018461076791906136b7565b81526020019081526020016000206000015490506000600b60008381526020019081526020016000209050806040518060a0016040529081600082015481526020016001820160009054906101000a900473ffffffffffffffffffffffffffffffffffffffff1673ffffffffffffffffffffffffffffffffffffffff1673ffffffffffffffffffffffffffffffffffffffff1681526020016002820160009054906101000a900473ffffffffffffffffffffffffffffffffffffffff1673ffffffffffffffffffffffffffffffffffffffff1673ffffffffffffffffffffffffffffffffffffffff168152602001600382015481526020016004820160009054906101000a900460ff16151515158152505084868151811061088c5761088b6136eb565b5b60200260200101819052506001856108a491906136b7565b945050505b80806108b49061371a565b9150506106d7565b508094505050505090565b6000600954905090565b606060006108df6007611c48565b905060008060005b83811015610987573373ffffffffffffffffffffffffffffffffffffffff16600b600060018461091791906136b7565b815260200190815260200160002060020160009054906101000a900473ffffffffffffffffffffffffffffffffffffffff1673ffffffffffffffffffffffffffffffffffffffff16036109745760018361097191906136b7565b92505b808061097f9061371a565b9150506108e7565b5060008267ffffffffffffffff8111156109a4576109a361325d565b5b6040519080825280602002602001820160405280156109dd57816020015b6109ca612d28565b8152602001906001900390816109c25790505b50905060005b84811015610bc8573373ffffffffffffffffffffffffffffffffffffffff16600b6000600184610a1391906136b7565b815260200190815260200160002060020160009054906101000a900473ffffffffffffffffffffffffffffffffffffffff1673ffffffffffffffffffffffffffffffffffffffff1603610bb5576000600b6000600184610a7391906136b7565b81526020019081526020016000206000015490506000600b60008381526020019081526020016000209050806040518060a0016040529081600082015481526020016001820160009054906101000a900473ffffffffffffffffffffffffffffffffffffffff1673ffffffffffffffffffffffffffffffffffffffff1673ffffffffffffffffffffffffffffffffffffffff1681526020016002820160009054906101000a900473ffffffffffffffffffffffffffffffffffffffff1673ffffffffffffffffffffffffffffffffffffffff1673ffffffffffffffffffffffffffffffffffffffff168152602001600382015481526020016004820160009054906101000a900460ff161515151581525050848681518110610b9857610b976136eb565b5b6020026020010181905250600185610bb091906136b7565b945050505b8080610bc09061371a565b9150506109e3565b508094505050505090565b600073ffffffffffffffffffffffffffffffffffffffff168273ffffffffffffffffffffffffffffffffffffffff1603610c455760006040517f64a0ae92000000000000000000000000000000000000000000000000000000008152600401610c3c9190612faa565b60405180910390fd5b6000610c598383610c54611c2e565b611c56565b90508373ffffffffffffffffffffffffffffffffffffffff168173ffffffffffffffffffffffffffffffffffffffff1614610ccf578382826040517f64283d7b000000000000000000000000000000000000000000000000000000008152600401610cc693929190613762565b60405180910390fd5b50505050565b3373ffffffffffffffffffffffffffffffffffffffff16600b600083815260200190815260200160002060010160009054906101000a900473ffffffffffffffffffffffffffffffffffffffff1673ffffffffffffffffffffffffffffffffffffffff1614610d79576040517f08c379a0000000000000000000000000000000000000000000000000000000008152600401610d7090613831565b60405180910390fd5b60001515600b600083815260200190815260200160002060040160009054906101000a900460ff16151514610de3576040517f08c379a0000000000000000000000000000000000000000000000000000000008152600401610dda9061389d565b60405180910390fd5b33600b600083815260200190815260200160002060020160006101000a81548173ffffffffffffffffffffffffffffffffffffffff021916908373ffffffffffffffffffffffffffffffffffffffff1602179055506000600b600083815260200190815260200160002060010160006101000a81548173ffffffffffffffffffffffffffffffffffffffff021916908373ffffffffffffffffffffffffffffffffffffffff1602179055506001600b600083815260200190815260200160002060040160006101000a81548160ff021916908315150217905550610ec76008611e70565b3373ffffffffffffffffffffffffffffffffffffffff166108fc6009549081150290604051600060405180830381858888f19350505050158015610f0f573d6000803e3d6000fd5b50610f1b303383611e8f565b50565b610f3983838360405180602001604052806000815250611490565b505050565b60606000610f4c6007611c48565b905060008060005b83811015610ff4573373ffffffffffffffffffffffffffffffffffffffff16600b6000600184610f8491906136b7565b815260200190815260200160002060010160009054906101000a900473ffffffffffffffffffffffffffffffffffffffff1673ffffffffffffffffffffffffffffffffffffffff1603610fe157600183610fde91906136b7565b92505b8080610fec9061371a565b915050610f54565b5060008267ffffffffffffffff8111156110115761101061325d565b5b60405190808252806020026020018201604052801561104a57816020015b611037612d28565b81526020019060019003908161102f5790505b50905060005b84811015611235573373ffffffffffffffffffffffffffffffffffffffff16600b600060018461108091906136b7565b815260200190815260200160002060010160009054906101000a900473ffffffffffffffffffffffffffffffffffffffff1673ffffffffffffffffffffffffffffffffffffffff1603611222576000600b60006001846110e091906136b7565b81526020019081526020016000206000015490506000600b60008381526020019081526020016000209050806040518060a0016040529081600082015481526020016001820160009054906101000a900473ffffffffffffffffffffffffffffffffffffffff1673ffffffffffffffffffffffffffffffffffffffff1673ffffffffffffffffffffffffffffffffffffffff1681526020016002820160009054906101000a900473ffffffffffffffffffffffffffffffffffffffff1673ffffffffffffffffffffffffffffffffffffffff1673ffffffffffffffffffffffffffffffffffffffff168152602001600382015481526020016004820160009054906101000a900460ff161515151581525050848681518110611205576112046136eb565b5b602002602001018190525060018561121d91906136b7565b945050505b808061122d9061371a565b915050611050565b508094505050505090565b600061124b82611b69565b9050919050565b60008073ffffffffffffffffffffffffffffffffffffffff168273ffffffffffffffffffffffffffffffffffffffff16036112c55760006040517f89c62b640000000000000000000000000000000000000000000000000000000081526004016112bc9190612faa565b60405180910390fd5b600360008373ffffffffffffffffffffffffffffffffffffffff1673ffffffffffffffffffffffffffffffffffffffff168152602001908152602001600020549050919050565b60006113186007611e70565b60006113246007611c48565b90506113303382611ffc565b61133a81856120f5565b6113448184612151565b8091505092915050565b60606001805461135d90613623565b80601f016020809104026020016040519081016040528092919081815260200182805461138990613623565b80156113d65780601f106113ab576101008083540402835291602001916113d6565b820191906000526020600020905b8154815290600101906020018083116113b957829003601f168201915b5050505050905090565b6113f26113eb611c2e565b8383612354565b5050565b600a60009054906101000a900473ffffffffffffffffffffffffffffffffffffffff1673ffffffffffffffffffffffffffffffffffffffff163373ffffffffffffffffffffffffffffffffffffffff1614611486576040517f08c379a000000000000000000000000000000000000000000000000000000000815260040161147d9061392f565b60405180910390fd5b8060098190555050565b61149b848484610bd3565b6114a7848484846124c3565b50505050565b6000600b60008381526020019081526020016000206003015490506000600b600084815260200190815260200160002060010160009054906101000a900473ffffffffffffffffffffffffffffffffffffffff169050813414611545576040517f08c379a000000000000000000000000000000000000000000000000000000000815260040161153c906139e7565b60405180910390fd5b33600b600085815260200190815260200160002060020160006101000a81548173ffffffffffffffffffffffffffffffffffffffff021916908373ffffffffffffffffffffffffffffffffffffffff1602179055506001600b600085815260200190815260200160002060040160006101000a81548160ff0219169083151502179055506000600b600085815260200190815260200160002060010160006101000a81548173ffffffffffffffffffffffffffffffffffffffff021916908373ffffffffffffffffffffffffffffffffffffffff1602179055506116296008611e70565b611634303385611e8f565b600a60009054906101000a900473ffffffffffffffffffffffffffffffffffffffff1673ffffffffffffffffffffffffffffffffffffffff166108fc6009549081150290604051600060405180830381858888f1935050505015801561169e573d6000803e3d6000fd5b508073ffffffffffffffffffffffffffffffffffffffff166108fc349081150290604051600060405180830381858888f193505050501580156116e5573d6000803e3d6000fd5b50505050565b60606116f682611b69565b50600060066000848152602001908152602001600020805461171790613623565b80601f016020809104026020016040519081016040528092919081815260200182805461174390613623565b80156117905780601f1061176557610100808354040283529160200191611790565b820191906000526020600020905b81548152906001019060200180831161177357829003601f168201915b5050505050905060006117a161267a565b905060008151036117b65781925050506117f9565b6000825111156117eb5780826040516020016117d3929190613a43565b604051602081830303815290604052925050506117f9565b6117f484612691565b925050505b919050565b3373ffffffffffffffffffffffffffffffffffffffff16600b600084815260200190815260200160002060020160009054906101000a900473ffffffffffffffffffffffffffffffffffffffff1673ffffffffffffffffffffffffffffffffffffffff16146118a2576040517f08c379a000000000000000000000000000000000000000000000000000000000815260040161189990613ad9565b60405180910390fd5b60095434146118e6576040517f08c379a00000000000000000000000000000000000000000000000000000000081526004016118dd90613b6b565b60405180910390fd5b6000600b600084815260200190815260200160002060040160006101000a81548160ff02191690831515021790555080600b60008481526020019081526020016000206003018190555033600b600084815260200190815260200160002060010160006101000a81548173ffffffffffffffffffffffffffffffffffffffff021916908373ffffffffffffffffffffffffffffffffffffffff16021790555030600b600084815260200190815260200160002060020160006101000a81548173ffffffffffffffffffffffffffffffffffffffff021916908373ffffffffffffffffffffffffffffffffffffffff1602179055506119e460086126fa565b6119ef333084611e8f565b5050565b6000600560008473ffffffffffffffffffffffffffffffffffffffff1673ffffffffffffffffffffffffffffffffffffffff16815260200190815260200160002060008373ffffffffffffffffffffffffffffffffffffffff1673ffffffffffffffffffffffffffffffffffffffff16815260200190815260200160002060009054906101000a900460ff16905092915050565b60007f80ac58cd000000000000000000000000000000000000000000000000000000007bffffffffffffffffffffffffffffffffffffffffffffffffffffffff1916827bffffffffffffffffffffffffffffffffffffffffffffffffffffffff19161480611b5257507f5b5e139f000000000000000000000000000000000000000000000000000000007bffffffffffffffffffffffffffffffffffffffffffffffffffffffff1916827bffffffffffffffffffffffffffffffffffffffffffffffffffffffff1916145b80611b625750611b6182612716565b5b9050919050565b600080611b7583612780565b9050600073ffffffffffffffffffffffffffffffffffffffff168173ffffffffffffffffffffffffffffffffffffffff1603611be857826040517f7e273289000000000000000000000000000000000000000000000000000000008152600401611bdf91906131b8565b60405180910390fd5b80915050919050565b60006004600083815260200190815260200160002060009054906101000a900473ffffffffffffffffffffffffffffffffffffffff169050919050565b600033905090565b611c4383838360016127bd565b505050565b600081600001549050919050565b600080611c6284612780565b9050600073ffffffffffffffffffffffffffffffffffffffff168373ffffffffffffffffffffffffffffffffffffffff1614611ca457611ca3818486612982565b5b600073ffffffffffffffffffffffffffffffffffffffff168173ffffffffffffffffffffffffffffffffffffffff1614611d3557611ce66000856000806127bd565b6001600360008373ffffffffffffffffffffffffffffffffffffffff1673ffffffffffffffffffffffffffffffffffffffff168152602001908152602001600020600082825403925050819055505b600073ffffffffffffffffffffffffffffffffffffffff168573ffffffffffffffffffffffffffffffffffffffff1614611db8576001600360008773ffffffffffffffffffffffffffffffffffffffff1673ffffffffffffffffffffffffffffffffffffffff168152602001908152602001600020600082825401925050819055505b846002600086815260200190815260200160002060006101000a81548173ffffffffffffffffffffffffffffffffffffffff021916908373ffffffffffffffffffffffffffffffffffffffff160217905550838573ffffffffffffffffffffffffffffffffffffffff168273ffffffffffffffffffffffffffffffffffffffff167fddf252ad1be2c89b69c2b068fc378daa952ba7f163c4a11628f55a4df523b3ef60405160405180910390a4809150509392505050565b6001816000016000828254611e8591906136b7565b9250508190555050565b600073ffffffffffffffffffffffffffffffffffffffff168273ffffffffffffffffffffffffffffffffffffffff1603611f015760006040517f64a0ae92000000000000000000000000000000000000000000000000000000008152600401611ef89190612faa565b60405180910390fd5b6000611f0f83836000611c56565b9050600073ffffffffffffffffffffffffffffffffffffffff168173ffffffffffffffffffffffffffffffffffffffff1603611f8257816040517f7e273289000000000000000000000000000000000000000000000000000000008152600401611f7991906131b8565b60405180910390fd5b8373ffffffffffffffffffffffffffffffffffffffff168173ffffffffffffffffffffffffffffffffffffffff1614611ff6578382826040517f64283d7b000000000000000000000000000000000000000000000000000000008152600401611fed93929190613762565b60405180910390fd5b50505050565b600073ffffffffffffffffffffffffffffffffffffffff168273ffffffffffffffffffffffffffffffffffffffff160361206e5760006040517f64a0ae920000000000000000000000000000000000000000000000000000000081526004016120659190612faa565b60405180910390fd5b600061207c83836000611c56565b9050600073ffffffffffffffffffffffffffffffffffffffff168173ffffffffffffffffffffffffffffffffffffffff16146120f05760006040517f73c6ac6e0000000000000000000000000000000000000000000000000000000081526004016120e79190612faa565b60405180910390fd5b505050565b806006600084815260200190815260200160002090816121159190613d37565b507ff8e1a15aba9398e019f0b49df1a4fde98ee17ae345cb5f6b5e2c27f5033e8ce78260405161214591906131b8565b60405180910390a15050565b60008111612194576040517f08c379a000000000000000000000000000000000000000000000000000000000815260040161218b90613e55565b60405180910390fd5b60095434146121d8576040517f08c379a00000000000000000000000000000000000000000000000000000000081526004016121cf90613b6b565b60405180910390fd5b6040518060a001604052808381526020013373ffffffffffffffffffffffffffffffffffffffff1681526020013073ffffffffffffffffffffffffffffffffffffffff16815260200182815260200160001515815250600b60008481526020019081526020016000206000820151816000015560208201518160010160006101000a81548173ffffffffffffffffffffffffffffffffffffffff021916908373ffffffffffffffffffffffffffffffffffffffff16021790555060408201518160020160006101000a81548173ffffffffffffffffffffffffffffffffffffffff021916908373ffffffffffffffffffffffffffffffffffffffff1602179055506060820151816003015560808201518160040160006101000a81548160ff021916908315150217905550905050612311333084611e8f565b817fb640004f1d14576d0c209e240cad0410e0d8c0c33a09375861fbadae2588a98d33308460006040516123489493929190613e75565b60405180910390a25050565b600073ffffffffffffffffffffffffffffffffffffffff168273ffffffffffffffffffffffffffffffffffffffff16036123c557816040517f5b08ba180000000000000000000000000000000000000000000000000000000081526004016123bc9190612faa565b60405180910390fd5b80600560008573ffffffffffffffffffffffffffffffffffffffff1673ffffffffffffffffffffffffffffffffffffffff16815260200190815260200160002060008473ffffffffffffffffffffffffffffffffffffffff1673ffffffffffffffffffffffffffffffffffffffff16815260200190815260200160002060006101000a81548160ff0219169083151502179055508173ffffffffffffffffffffffffffffffffffffffff168373ffffffffffffffffffffffffffffffffffffffff167f17307eab39ab6107e8899845ad3d59bd9653f200f220920489ca2b5937696c31836040516124b69190612e39565b60405180910390a3505050565b60008373ffffffffffffffffffffffffffffffffffffffff163b1115612674578273ffffffffffffffffffffffffffffffffffffffff1663150b7a02612507611c2e565b8685856040518563ffffffff1660e01b81526004016125299493929190613f0f565b6020604051808303816000875af192505050801561256557506040513d601f19601f820116820180604052508101906125629190613f70565b60015b6125e9573d8060008114612595576040519150601f19603f3d011682016040523d82523d6000602084013e61259a565b606091505b5060008151036125e157836040517f64a0ae920000000000000000000000000000000000000000000000000000000081526004016125d89190612faa565b60405180910390fd5b805181602001fd5b63150b7a0260e01b7bffffffffffffffffffffffffffffffffffffffffffffffffffffffff1916817bffffffffffffffffffffffffffffffffffffffffffffffffffffffff19161461267257836040517f64a0ae920000000000000000000000000000000000000000000000000000000081526004016126699190612faa565b60405180910390fd5b505b50505050565b606060405180602001604052806000815250905090565b606061269c82611b69565b5060006126a761267a565b905060008151116126c757604051806020016040528060008152506126f2565b806126d184612a46565b6040516020016126e2929190613a43565b6040516020818303038152906040525b915050919050565b6001816000015461270b9190613683565b816000018190555050565b60007f01ffc9a7000000000000000000000000000000000000000000000000000000007bffffffffffffffffffffffffffffffffffffffffffffffffffffffff1916827bffffffffffffffffffffffffffffffffffffffffffffffffffffffff1916149050919050565b60006002600083815260200190815260200160002060009054906101000a900473ffffffffffffffffffffffffffffffffffffffff169050919050565b80806127f65750600073ffffffffffffffffffffffffffffffffffffffff168273ffffffffffffffffffffffffffffffffffffffff1614155b1561292a57600061280684611b69565b9050600073ffffffffffffffffffffffffffffffffffffffff168373ffffffffffffffffffffffffffffffffffffffff161415801561287157508273ffffffffffffffffffffffffffffffffffffffff168173ffffffffffffffffffffffffffffffffffffffff1614155b8015612884575061288281846119f3565b155b156128c657826040517fa9fbf51f0000000000000000000000000000000000000000000000000000000081526004016128bd9190612faa565b60405180910390fd5b811561292857838573ffffffffffffffffffffffffffffffffffffffff168273ffffffffffffffffffffffffffffffffffffffff167f8c5be1e5ebec7d5bd14f71427d1e84f3dd0314c0f7b2291e5b200ac8c7c3b92560405160405180910390a45b505b836004600085815260200190815260200160002060006101000a81548173ffffffffffffffffffffffffffffffffffffffff021916908373ffffffffffffffffffffffffffffffffffffffff16021790555050505050565b61298d838383612b14565b612a4157600073ffffffffffffffffffffffffffffffffffffffff168373ffffffffffffffffffffffffffffffffffffffff1603612a0257806040517f7e2732890000000000000000000000000000000000000000000000000000000081526004016129f991906131b8565b60405180910390fd5b81816040517f177e802f000000000000000000000000000000000000000000000000000000008152600401612a38929190613f9d565b60405180910390fd5b505050565b606060006001612a5584612bd5565b01905060008167ffffffffffffffff811115612a7457612a7361325d565b5b6040519080825280601f01601f191660200182016040528015612aa65781602001600182028036833780820191505090505b509050600082602001820190505b600115612b09578080600190039150507f3031323334353637383961626364656600000000000000000000000000000000600a86061a8153600a8581612afd57612afc613fc6565b5b04945060008503612ab4575b819350505050919050565b60008073ffffffffffffffffffffffffffffffffffffffff168373ffffffffffffffffffffffffffffffffffffffff1614158015612bcc57508273ffffffffffffffffffffffffffffffffffffffff168473ffffffffffffffffffffffffffffffffffffffff161480612b8d5750612b8c84846119f3565b5b80612bcb57508273ffffffffffffffffffffffffffffffffffffffff16612bb383611bf1565b73ffffffffffffffffffffffffffffffffffffffff16145b5b90509392505050565b600080600090507a184f03e93ff9f4daa797ed6e38ed64bf6a1f0100000000000000008310612c33577a184f03e93ff9f4daa797ed6e38ed64bf6a1f0100000000000000008381612c2957612c28613fc6565b5b0492506040810190505b6d04ee2d6d415b85acef81000000008310612c70576d04ee2d6d415b85acef81000000008381612c6657612c65613fc6565b5b0492506020810190505b662386f26fc100008310612c9f57662386f26fc100008381612c9557612c94613fc6565b5b0492506010810190505b6305f5e1008310612cc8576305f5e1008381612cbe57612cbd613fc6565b5b0492506008810190505b6127108310612ced576127108381612ce357612ce2613fc6565b5b0492506004810190505b60648310612d105760648381612d0657612d05613fc6565b5b0492506002810190505b600a8310612d1f576001810190505b80915050919050565b6040518060a0016040528060008152602001600073ffffffffffffffffffffffffffffffffffffffff168152602001600073ffffffffffffffffffffffffffffffffffffffff168152602001600081526020016000151581525090565b6000604051905090565b600080fd5b600080fd5b60007fffffffff0000000000000000000000000000000000000000000000000000000082169050919050565b612dce81612d99565b8114612dd957600080fd5b50565b600081359050612deb81612dc5565b92915050565b600060208284031215612e0757612e06612d8f565b5b6000612e1584828501612ddc565b91505092915050565b60008115159050919050565b612e3381612e1e565b82525050565b6000602082019050612e4e6000830184612e2a565b92915050565b600081519050919050565b600082825260208201905092915050565b60005b83811015612e8e578082015181840152602081019050612e73565b60008484015250505050565b6000601f19601f8301169050919050565b6000612eb682612e54565b612ec08185612e5f565b9350612ed0818560208601612e70565b612ed981612e9a565b840191505092915050565b60006020820190508181036000830152612efe8184612eab565b905092915050565b6000819050919050565b612f1981612f06565b8114612f2457600080fd5b50565b600081359050612f3681612f10565b92915050565b600060208284031215612f5257612f51612d8f565b5b6000612f6084828501612f27565b91505092915050565b600073ffffffffffffffffffffffffffffffffffffffff82169050919050565b6000612f9482612f69565b9050919050565b612fa481612f89565b82525050565b6000602082019050612fbf6000830184612f9b565b92915050565b612fce81612f89565b8114612fd957600080fd5b50565b600081359050612feb81612fc5565b92915050565b6000806040838503121561300857613007612d8f565b5b600061301685828601612fdc565b925050602061302785828601612f27565b9150509250929050565b600081519050919050565b600082825260208201905092915050565b6000819050602082019050919050565b61306681612f06565b82525050565b600061307782612f69565b9050919050565b6130878161306c565b82525050565b61309681612e1e565b82525050565b60a0820160008201516130b2600085018261305d565b5060208201516130c5602085018261307e565b5060408201516130d8604085018261307e565b5060608201516130eb606085018261305d565b5060808201516130fe608085018261308d565b50505050565b6000613110838361309c565b60a08301905092915050565b6000602082019050919050565b600061313482613031565b61313e818561303c565b93506131498361304d565b8060005b8381101561317a5781516131618882613104565b975061316c8361311c565b92505060018101905061314d565b5085935050505092915050565b600060208201905081810360008301526131a18184613129565b905092915050565b6131b281612f06565b82525050565b60006020820190506131cd60008301846131a9565b92915050565b6000806000606084860312156131ec576131eb612d8f565b5b60006131fa86828701612fdc565b935050602061320b86828701612fdc565b925050604061321c86828701612f27565b9150509250925092565b60006020828403121561323c5761323b612d8f565b5b600061324a84828501612fdc565b91505092915050565b600080fd5b600080fd5b7f4e487b7100000000000000000000000000000000000000000000000000000000600052604160045260246000fd5b61329582612e9a565b810181811067ffffffffffffffff821117156132b4576132b361325d565b5b80604052505050565b60006132c7612d85565b90506132d3828261328c565b919050565b600067ffffffffffffffff8211156132f3576132f261325d565b5b6132fc82612e9a565b9050602081019050919050565b82818337600083830152505050565b600061332b613326846132d8565b6132bd565b90508281526020810184848401111561334757613346613258565b5b613352848285613309565b509392505050565b600082601f83011261336f5761336e613253565b5b813561337f848260208601613318565b91505092915050565b6000806040838503121561339f5761339e612d8f565b5b600083013567ffffffffffffffff8111156133bd576133bc612d94565b5b6133c98582860161335a565b92505060206133da85828601612f27565b9150509250929050565b6133ed81612e1e565b81146133f857600080fd5b50565b60008135905061340a816133e4565b92915050565b6000806040838503121561342757613426612d8f565b5b600061343585828601612fdc565b9250506020613446858286016133fb565b9150509250929050565b600067ffffffffffffffff82111561346b5761346a61325d565b5b61347482612e9a565b9050602081019050919050565b600061349461348f84613450565b6132bd565b9050828152602081018484840111156134b0576134af613258565b5b6134bb848285613309565b509392505050565b600082601f8301126134d8576134d7613253565b5b81356134e8848260208601613481565b91505092915050565b6000806000806080858703121561350b5761350a612d8f565b5b600061351987828801612fdc565b945050602061352a87828801612fdc565b935050604061353b87828801612f27565b925050606085013567ffffffffffffffff81111561355c5761355b612d94565b5b613568878288016134c3565b91505092959194509250565b6000806040838503121561358b5761358a612d8f565b5b600061359985828601612f27565b92505060206135aa85828601612f27565b9150509250929050565b600080604083850312156135cb576135ca612d8f565b5b60006135d985828601612fdc565b92505060206135ea85828601612fdc565b9150509250929050565b7f4e487b7100000000000000000000000000000000000000000000000000000000600052602260045260246000fd5b6000600282049050600182168061363b57607f821691505b60208210810361364e5761364d6135f4565b5b50919050565b7f4e487b7100000000000000000000000000000000000000000000000000000000600052601160045260246000fd5b600061368e82612f06565b915061369983612f06565b92508282039050818111156136b1576136b0613654565b5b92915050565b60006136c282612f06565b91506136cd83612f06565b92508282019050808211156136e5576136e4613654565b5b92915050565b7f4e487b7100000000000000000000000000000000000000000000000000000000600052603260045260246000fd5b600061372582612f06565b91507fffffffffffffffffffffffffffffffffffffffffffffffffffffffffffffffff820361375757613756613654565b5b600182019050919050565b60006060820190506137776000830186612f9b565b61378460208301856131a9565b6137916040830184612f9b565b949350505050565b7f596f7520617265206e6f74207468652073656c6c6572206f662074686973207460008201527f6f6b656e2c20736f20796f752063616e6e6f742063616e63656c20746865206c60208201527f697374696e670000000000000000000000000000000000000000000000000000604082015250565b600061381b604683612e5f565b915061382682613799565b606082019050919050565b6000602082019050818103600083015261384a8161380e565b9050919050565b7f4f6e6c792063616e63656c20756e736f6c64206974656d730000000000000000600082015250565b6000613887601883612e5f565b915061389282613851565b602082019050919050565b600060208201905081810360008301526138b68161387a565b9050919050565b7f4f6e6c79206d61726b6574706c616365206f776e6565722063616e207570646160008201527f746520746865206c697374696e67207072696365000000000000000000000000602082015250565b6000613919603483612e5f565b9150613924826138bd565b604082019050919050565b600060208201905081810360008301526139488161390c565b9050919050565b7f506c65617365207375626d6974207468652061736b696e67207072696365206f60008201527f66204e465420696e206f7264657220746f20636f6d706c65746520746865207060208201527f7572636861736500000000000000000000000000000000000000000000000000604082015250565b60006139d1604783612e5f565b91506139dc8261394f565b606082019050919050565b60006020820190508181036000830152613a00816139c4565b9050919050565b600081905092915050565b6000613a1d82612e54565b613a278185613a07565b9350613a37818560208601612e70565b80840191505092915050565b6000613a4f8285613a12565b9150613a5b8284613a12565b91508190509392505050565b7f596f7520617265206e6f7420746865206f776e6572206f66207468697320746f60008201527f6b656e2c20736f20796f752063616e6e6f7420726573656c6c20697400000000602082015250565b6000613ac3603c83612e5f565b9150613ace82613a67565b604082019050919050565b60006020820190508181036000830152613af281613ab6565b9050919050565b7f5072696365206d75737420626520657175616c20746f206c697374696e67207060008201527f7269636500000000000000000000000000000000000000000000000000000000602082015250565b6000613b55602483612e5f565b9150613b6082613af9565b604082019050919050565b60006020820190508181036000830152613b8481613b48565b9050919050565b60008190508160005260206000209050919050565b60006020601f8301049050919050565b600082821b905092915050565b600060088302613bed7fffffffffffffffffffffffffffffffffffffffffffffffffffffffffffffffff82613bb0565b613bf78683613bb0565b95508019841693508086168417925050509392505050565b6000819050919050565b6000613c34613c2f613c2a84612f06565b613c0f565b612f06565b9050919050565b6000819050919050565b613c4e83613c19565b613c62613c5a82613c3b565b848454613bbd565b825550505050565b600090565b613c77613c6a565b613c82818484613c45565b505050565b5b81811015613ca657613c9b600082613c6f565b600181019050613c88565b5050565b601f821115613ceb57613cbc81613b8b565b613cc584613ba0565b81016020851015613cd4578190505b613ce8613ce085613ba0565b830182613c87565b50505b505050565b600082821c905092915050565b6000613d0e60001984600802613cf0565b1980831691505092915050565b6000613d278383613cfd565b9150826002028217905092915050565b613d4082612e54565b67ffffffffffffffff811115613d5957613d5861325d565b5b613d638254613623565b613d6e828285613caa565b600060209050601f831160018114613da15760008415613d8f578287015190505b613d998582613d1b565b865550613e01565b601f198416613daf86613b8b565b60005b82811015613dd757848901518255600182019150602085019450602081019050613db2565b86831015613df45784890151613df0601f891682613cfd565b8355505b6001600288020188555050505b505050505050565b7f5072696365206d7573742062652067726561746572207468616e203000000000600082015250565b6000613e3f601c83612e5f565b9150613e4a82613e09565b602082019050919050565b60006020820190508181036000830152613e6e81613e32565b9050919050565b6000608082019050613e8a6000830187612f9b565b613e976020830186612f9b565b613ea460408301856131a9565b613eb16060830184612e2a565b95945050505050565b600081519050919050565b600082825260208201905092915050565b6000613ee182613eba565b613eeb8185613ec5565b9350613efb818560208601612e70565b613f0481612e9a565b840191505092915050565b6000608082019050613f246000830187612f9b565b613f316020830186612f9b565b613f3e60408301856131a9565b8181036060830152613f508184613ed6565b905095945050505050565b600081519050613f6a81612dc5565b92915050565b600060208284031215613f8657613f85612d8f565b5b6000613f9484828501613f5b565b91505092915050565b6000604082019050613fb26000830185612f9b565b613fbf60208301846131a9565b9392505050565b7f4e487b7100000000000000000000000000000000000000000000000000000000600052601260045260246000fdfea26469706673582212200792723f706a2bd62806db7bc650c2ff429a986bb1e8123d02bfb708f0a7ff1e64736f6c63430008140033",
  "linkReferences": {},
  "deployedLinkReferences": {}
}